:0300000002001EDD
:0C001E00787FE4F6D8FD75810B020065C8
:0600030001090001080ED6
:0700AA0075080D7FF47E01D3
:0400B1008E0A8F0B19
:1000B500E4FFFEC3EF950BEE950A50327D017C00FF
:1000C5007B327A00900002E582158270021583E585
:1000D50082458370F2EB1B70011AEB4A70E6ED1D49
:0E00E50070011CED4C70D90FBF00010E80C5DC
:0100F30022EA
:03001B00020139A6
:10013900C0E0C0D0758DFF758B9C0509E509D39585
:10014900085004D2A08002C2A0E509C39464400308
:08015900750900D0D0D0E0329E
:1000F400758910758DFF758B9CD28ED2ABD2AF757E
:1001040008097FD07E071200B11200AA7508047F87
:10011400D07E071200B11200AA7508117FD07E07A5
:100124001200B11200AA7508167FD07E071200B122
:050134001200AA80CAC0
:10002A000200F4E493A3F8E493A34003F68001F2F8
:10003A0008DFF48029E493A3F85407240CC8C333D7
:10004A00C4540F4420C8834004F456800146F6DFA6
:10005A00E4800B0102040810204080900003E47E33
:10006A00019360BCA3FF543F30E509541FFEE4939B
:10007A00A360010ECF54C025E060A840B8E493A362
:10008A00FAE493A3F8E493A3C8C582C8CAC583CA8D
:10009A00F0A3C8C582C8CAC583CADFE9DEE780BE45
:0100090000F6
:00000001FF
