:020000040800F2
:10000000C047002031020008233800086F32000882
:1000100021380008F11800088B4600080000000095
:10002000000000000000000000000000990100082E
:100030002F19000800000000DD01000881410008C0
:100040004B0200084B0200084B0200084B0200085C
:100050004B0200084B0200084B020008511900082F
:100060004B0200084B0200084B0200084B0200083C
:100070004B0200084B0200084B0200084B0200082C
:100080004B0200084B0200084B0200084B0200081C
:100090004B0200084B0200084B0200084B0200080C
:1000A0004B0200084B0200084B0200084B020008FC
:1000B0004B0200084B0200084B0200084B020008EC
:1000C0004B0200084B0200084B0200084B020008DC
:1000D0004B020008514600085D46000869460008CA
:1000E0004B0200084B0200084B02000800F002F827
:1000F00000F042F80AA090E8000C82448344AAF180
:100100000107DA4501D100F037F8AFF2090EBAE87D
:100110000F0013F0010F18BFFB1A43F0010318473B
:100120007C6700009C670000103A24BF78C878C143
:10013000FAD8520724BF30C830C144BF04680C60ED
:10014000704700000023002400250026103A28BF35
:1001500078C1FBD8520728BF30C148BF0B60704739
:10016000752900F01581732900F0B38300207047D2
:100170001FB51FBD10B510BD00F003FC1146FFF701
:10018000F7FF04F024FB00F021FC03B4FFF7F2FFBB
:1001900003BC00F029FC0000224B19680868B0E895
:1001A000F00F80F30988BFF36F8F4FF0000080F3EA
:1001B00011884EF00D0E70470000000006480068E0
:1001C000006880F3088862B661B6BFF34F8FBFF353
:1001D0006F8F00DF00BF00BF08ED00E0EFF3098084
:1001E000BFF36F8F0F4B1A6820E9F00F106008B54E
:1001F0004FF0500080F31188BFF34F8FBFF36F8F24
:1002000005F0B0F94FF0000080F31188BDE8084018
:1002100019680868B0E8F00F80F30988BFF36F8FA2
:10022000704700BF54000020EFF3058070470000C6
:100230000948804709480047FEE7FEE7FEE7FEE77A
:10024000FEE7FEE7FEE7FEE7FEE7FEE704480549B6
:10025000054A064B70470000F7410008ED00000812
:10026000C0410020C0470020C0430020C043002000
:10027000B2F120030AD5C2F1200301FA02F120FAFB
:1002800003F300FA02F041EA0301704700FA03F1B8
:100290004FF000007047B2F120030AD5C2F12003ED
:1002A00020FA02F001FA03F321FA02F140EA030016
:1002B000704721FA03F04FF0000170470FB41CB5EE
:1002C0000C0007AA009001D02044401E074B7B443D
:1002D00069460190069800F0CAFA002C03D06946DE
:1002E000002000F0D7FA1CBC5DF814FBCD0500001F
:1002F00070B5044685690068C10601D5302600E066
:100300002026C00707D070BDD4E9012130469047B0
:10031000206A401C20626D1EF6D570BD70B5044683
:1003200085690078C00707D170BDD4E9012120207C
:100330009047206A401C20626D1EF6D570BD70B5D6
:100340000C460546012A05D02878800600D5EA69C2
:10035000002302E0012305E05B1C934202D2E05C33
:100360000028F9D1A869E618C01AA861286A1844BB
:1003700028622846FFF7BCFF04E0D5E9012114F804
:10038000010B9047B442F8D32846FFF7C7FF70BD72
:100390002DE9F0410646002410687529314616A55E
:1003A00010D0AFF30080002802DA404213A507E026
:1003B00031688A0701D512A502E0490704D511A5C5
:1003C000012401E0AFF3008000210A2206F1240796
:1003D00009E0B0FBF2FCB0FBF2F302FB1C00303092
:1003E00078541846491C0028F3D123462A46304643
:1003F000BDE8F04100F0DCB9000000002D00000075
:100400002B000000200000002DE9F05F8946044623
:100410004FF0000ADFF824B1FB44C0F820A02046CA
:10042000E168884700287DD0252806D0D4E901213D
:100430009047206A401C2062F1E700255F46204675
:10044000E16888472028064607DB312E05D2B81917
:1004500010F8200C08B10543F1E7A80701D525F0F5
:100460000405C4F81CA00027C4F818A02A2E09D03F
:10047000304604F0A5F938B304EB8708303EC8F8DD
:10048000186019E059F8041B204604EB87029161BB
:10049000E1688847012F064618D1E069002820DA74
:1004A00025F020051DE0D8F8180000EB800006EBD1
:1004B00040003038C8F818002046E16888470646F2
:1004C00004F07EF90028EED1012F0AD02E2E08D19B
:1004D0002046E16888477F1C0646022F45F020052C
:1004E000C4DBA069002803DA404245F00105A061A1
:1004F000E80701D025F01005A6B1A6F141001928A2
:1005000002D8203645F400654A463146204625602B
:100510004D46FFF725FE60B1012807D0ED1D25F0FF
:10052000070000E007E000F1080978E705F1040999
:1005300075E730467AE7206ABDE8F09F6264000004
:1005400040EA010310B59B070FD1042A0DD310C850
:1005500008C9121F9C42F8D020BA19BA884201D9A2
:10056000012010BD4FF0FF3010BD1AB1D30703D0EA
:10057000521C07E0002010BD10F8013B11F8014BA0
:100580001B1B07D110F8013B11F8014B1B1B01D1BC
:10059000921EF1D1184610BD10B5431C02E010F8B0
:1005A000011B71B18107FAD14FF0013202C88C1AD8
:1005B0008C4314EAC211F9D0C01A0A0603D0C01E37
:1005C00010BDC01A10BD0A0401D0801E10BD090262
:1005D000FCD0401E10BD40EA010370B59B072ED130
:1005E0004FF00136042A2AD308C810C99D1B9D4329
:1005F000121F15EAC61517D0D8B2E1B2401A50EA58
:10060000056110D198B2A1B2401A50EA05410AD151
:1006100023F07F4024F07F41401A50EA052102D1A7
:10062000180EA0EB146070BDA342DBD018BA21BA3B
:10063000884201D9012070BD4FF0FF3070BD0AB96A
:10064000002070BD10F8013B11F8014B63B1A342CB
:100650000AD1521E08D010F8013B11F8014B1BB112
:10066000A34201D1521EEDD1181B70BD032A40F2E6
:10067000308010F0030C00F0158011F8013BBCF144
:10068000020F624498BF11F801CB00F8013B38BF5C
:1006900011F8013BA2F1040298BF00F801CB38BF6A
:1006A00000F8013B11F0030300F01781083AC0F095
:1006B000088051F8043B083A51F804CBA0E8081030
:1006C000F5E7121D5CBF51F8043B40F8043BAFF363
:1006D0000080D20724BF11F8013B11F801CB48BFBD
:1006E00011F8012B24BF00F8013B00F801CB48BFF3
:1006F00000F8012B704702F0FF0343EA032242EAAD
:10070000024200F01EB94FF0000200B513469446B5
:100710009646203922BFA0E80C50A0E80C50B1F159
:100720002001BFF4F7AF090728BFA0E80C5048BF6D
:100730000CC05DF804EB890028BF40F8042B08BF0B
:10074000704748BF20F8022B11F0804F18BF00F807
:10075000012B704710B5044610F0030F08BF11F0CD
:10076000030F40F015804FF0013E121FC0F20E80C3
:1007700051F8043BA3EB0E0C2CEA030C1CEACE1C34
:1007800008BF40F8043BF0D0A1F1040102F10402DB
:10079000521E08DB11F8013B002B00F8013BF7D19A
:1007A000114600F0CCF8204610BD704770477047E6
:1007B0002DE9F0470D4699469246044600F124087B
:1007C0000168880604D5E06921F01001216000E08D
:1007D0000120A84201DD471B00E00027A1697A192A
:1007E00002EB0900081AA0612078C00602D4204656
:1007F000FFF77EFD002608E0D4E901211AF8060083
:100800009047206A401C761C20624E45F4DB20781D
:10081000C0060AD52046FFF76BFD06E0D4E90121AA
:1008200030209047206A401C2062381EA7F1010743
:10083000F4DC07E0D4E9012118F805009047206AAC
:10084000401C2062281EA5F10105F3DC2046FFF7BD
:1008500065FD2078000602D50220BDE8F087012062
:10086000FBE7000001694A1C02610878704700B587
:100870008FB0CDE901310021059105497944CDE9D9
:10088000031011466846FFF7BFFD0FB000BD000022
:10089000E5FFFFFF0A6802F8010B0A607047D1E923
:1008A00000239A4202D2531C0B601070704710B59F
:1008B000436913B1AFF3008001E0FFF740FD012071
:1008C00010BD127800F124010A7000224A70012242
:1008D000EDE711684FF0FF32E9E710B5203AC0F0BC
:1008E0000B80B1E81850203AA0E81850B1E8185031
:1008F000A0E81850BFF4F5AF5FEA027C24BFB1E86E
:100900001850A0E8185044BF18C918C0BDE81040DE
:100910005FEA827C24BF51F8043B40F8043B08BFE7
:100920007047D20728BF31F8023B48BF11F8012BAE
:1009300028BF20F8023B48BF00F8012B70474FF05A
:1009400000020429C0F0128010F0030C3FF4DDAE69
:10095000CCF1040CBCF1020F18BF00F8012BA8BFAA
:1009600020F8022BA1EB0C01FFF7CFBE5FEAC17CA0
:1009700024BF00F8012B00F8012B48BF00F8012B21
:100980007047754600F02CF8AE46050069465346A0
:1009900020F00700854618B020B5FFF757FCBDE8EA
:1009A00020404FF000064FF000074FF000084FF0D6
:1009B000000B21F00701AC46ACE8C009ACE8C00967
:1009C000ACE8C009ACE8C0098D46704710B50446D4
:1009D000AFF300802046BDE81040FFF7D6BB000013
:1009E000004870475C41002001491820ABBEFEE77B
:1009F00026000200704770B50C46062800D9062074
:100A00000546202210212046FFF775FE00225006E1
:100A1000000EAA4201D22A2100E05F21521CD2B26C
:100A20002154062AF3D30020207470BD10B502466D
:100A3000322801D3002010BD0349D1E90C01FFF792
:100A40002AFC00F0010010BD000000207CB500224F
:100A500008210C2004F022FE124C04210022E06048
:100A6000084604F01BFE206102250024CDE9005455
:100A7000EE01234632460CA10D4805F08DF8CDE974
:100A80000054002332460BA10C4805F085F80120E4
:100A9000CDE900040023324609A10A4805F07CF89C
:100AA0007CBD000000000020696E707574000000BD
:100AB0009910000866696E6765720000490B0008AE
:100AC00075690000BD16000810B5084600F0FAFB75
:100AD0000548002101704078002803D1BDE810408E
:100AE00000F020BD10BD00000000002070B5094ED0
:100AF000054600242046FFF799FF28B156F8240048
:100B0000A84201D1204670BD641CE4B2322CF1D35E
:100B1000FF2070BDE800002010B5094C02E00A205B
:100B200004F06CFC0221204601F044FB0128F6D0C1
:100B3000044902200860BDE81040072001F0ABBC6A
:100B4000000C01401404014090B04349434800F0B8
:100B5000AEFF4FF47A71414800F0EDFFDFF80081FD
:100B60004FF0FF3B4FF000095A4604A9D8F8100097
:100B700004F03CFF9DF81000B0B101282BD00228F2
:100B80003DD00328F0D100252E46202305AA294672
:100B9000324800F0A9FF78B388F805904FF4A021FF
:100BA000042000F0D1FBDFE741F2883103A8CDE952
:100BB0000001ADF80890ADF80C9002AB3222002194
:100BC000264800F058FF20B15FF0000040F480316B
:100BD0000CE00120FAE7BDF8121043F698221F48F6
:100BE00000F0DEFE48B1002040F40031042000F0A7
:100BF000ABFBFFF791FFB7E70FE00120F4E7BDF88B
:100C000012100122154800F0AFFE20B15FF0000085
:100C100040F48021C4E70120FAE7322700240DF1D7
:100C2000140A00BF0AEBD40004F007010078C840A2
:100C300010F0010F06D0224601200021FFF718FB1B
:100C400005430E43641CA4B2BC42EBD3C8E90E5664
:100C5000012188F80510A1E720030020DC00002016
:100C6000000000202DE9F041044600F071FA002850
:100C700038D11D4D687804280AD0002832D120468A
:100C8000FFF734FFFF2827D0BDE8F04100F0CCBDCE
:100C900028890327401E32280BD2C6B2322E08D232
:100CA0003046FFF7C3FE20B92046FFF71FFFFF289D
:100CB00001D0062009E00D48012140F826403046C9
:100CC00000F050FB00F004FB0A2000F0FBFA6F700C
:100CD000BDE8F04100F0BCBBBDE8F041022104A03A
:100CE000FFF7F2BEBDE8F08100000020E800002020
:100CF0004341524420455252000000002DE9FC417E
:100D0000044600268DF800600D2000F0DBFA00F0AC
:100D10001FFA00287DD1D84D6878062879D002279F
:100D200005F11E0801282AD16946204600F048FA3C
:100D300008B3287806286CD29DF8002008F8002017
:100D4000401CC0B2287000F06DFB2878062860D1E6
:100D500005F118010622881DFFF7F2FB40B10221C0
:100D6000C6A0FFF7B1FE6E70002000F0DBFB4FE085
:100D70006F70AE703FE10D2C4DD00F2C51D06878C4
:100D80000121C04B4FF0030C02284CD00422032851
:100D90007AD0042879D0052878D0072877D0082879
:100DA00076D0002835D10C2C73D06946204600F04F
:100DB00007FA00286ED0287806282AD29DF800204D
:100DC00008F80020401CC0B2287000F033FC2878DE
:100DD00006281ED1A84906221831881DFFF7B0FB4E
:100DE00000286ED0E8780221401CE870A6A0FFF72A
:100DF0006BFEE87803280BD304F034FF47F2305140
:100E000008446861EE70FF2028710C2000F05AFA47
:100E10002E70BDE8FC81287808B1401E2870C0B251
:100E200015E12E7007E0042C07D0082C0DD0102CF3
:100E300010D00F2CEDD16E7019E1A87818B1401EBA
:100E4000C0B2A870E5E00320FBE7A878401C00F0E2
:100E50000300F6E7A87830B1012808D002281AD09C
:100E600008206870E7E085F801C029814DE0052081
:100E7000687069816E711868002301901A4601A993
:100E8000286904F0A3FC55E009E03AE040E07CE08A
:100E9000B4E0D9E0E1E007206870304683E0042C3C
:100EA00006D0082C0ED0102C14D00C2C27D0ADE07E
:100EB0002889012801D8322001E0401E08E028815D
:100EC00023E0C7E02889322801D30120F7E7401C3E
:100ED00080B2F4E7287A401EC4B2322C0DD22046EC
:100EE000FFF7A4FD48B10021204600F03BFA00F0D6
:100EF000EFF9092000F0E6F907E00620FAE76A704A
:100F000087E70F2C85D185F801C000F0A1FA80E7B2
:100F1000042C07D0082C10D006260C2C15D0102C31
:100F200026D073E06889012801D8322001E0401EF4
:100F300009E0688100F0BEFA6BE76889322801D3C6
:100F40000120F6E7401C80B2F3E7586801906889F9
:100F5000ADF80600072001F08DFA00231A4601A91A
:100F6000286904F033FC6E70032000F0ABF950E701
:100F7000986801906889ADF8060000231A4601A917
:100F8000286904F023FC6E7043E76946204600F0B0
:100F900017F960B128780628B2D29DF8002008F829
:100FA0000020401CC0B2287000F04EFB31E70D2C31
:100FB00005D0102C09D00F2CA2D12E7028E0287853
:100FC00008B1401E2870C0B2EEE72878062807D086
:100FD00006212FA0FFF778FD287800F035FB17E7F2
:100FE000D5F81E00A861688CA88300F071F90B2069
:100FF00000F068F96F7000F0D7F909E72149143162
:10100000042C09D0082C19D0102C01D00F2C93D10E
:101010006F7000F0C9F9FCE6A879401C052801D3DF
:10102000AE7100E0A871A879095C1348243002F081
:10103000C2F900F04DF900F01BFBEAE6A87908B10F
:10104000401EEFE7AA71EEE72E703046697000F09F
:10105000E9F9DEE600F0E8FBDAE60D2C87D1287826
:1010600028B1401EC0B2287000F0E4FAD1E600209A
:1010700000F058FACDE60000000000205057442050
:1010800045525200B45F0008505744204552520068
:10109000505744204C454E001CB500273D46B846ED
:1010A0003E4602F091F902F013FE02F04BFE4120A1
:1010B00002F0E2FD00F0FAFB02F0A0F9040007D014
:1010C000BC4206D00146002000F03EF9274600E071
:1010D000002701A9522002F08DFD26281DD1684667
:1010E00002F0C7FC262818D1009800BA20F0FF01B2
:1010F0009DF8030041EA000404F0B4FD8146214656
:10110000AC4205D1A9EB080040F2DC52904204D970
:10111000012000F019F92546C84602F051FF0400ED
:1011200004D01EB90021022000F00EF9264607E087
:1011300000F0CAFB002803DBC1B2032000F004F971
:1011400000F0A2FB0028F3D1142004F057F9B3E714
:1011500030B5174C85B0606900281CD004F082FDC2
:101160006169884219D26278A2B9081A4FF47A717B
:1011700000F2E730B0FBF1F0C5B22079854209D02A
:101180002B460CA211216846FFF798F8684600F03C
:10119000C9F92571012005B030BD002060612071C2
:1011A000607810B9002000F0BDF90020F3E70000DE
:1011B000000000204C4F434B202530327553000077
:1011C0000F281FD2DFE800F01E080A0C1E0E1012B6
:1011D0001E1416181E1E1A00012010E002200EE038
:1011E00003200CE004200AE0052008E0062006E0C9
:1011F000072004E0082002E0092000E00020087039
:1012000001207047002070472DE9F047294800F081
:1012100040FD29490226294C88420ED00020A061B9
:10122000A083C8212648FFF76EFA0020C4E90C000D
:10123000A671BDE8F04700F04BB81E48001D00F055
:1012400028FD07461B48083000F023FD05461948D5
:101250000C3000F01EFD80461648103000F019FDDD
:1012600081461448143000F014FD14490246183128
:10127000380E0870380C4870380A8870CF70280E05
:101280000871280C4871D0B2C4E90C89A0710528F6
:1012900000D3A671074E0024094D183606EB8400D2
:1012A00000F0F7FC45F82400641C322CF6D3BDE8AE
:1012B000F087000000FC00084E434F4C0000002067
:1012C000E80000200146014802F03CB8240000205C
:1012D00030B5B9B01848009018480624694602682D
:1012E000C37812BA22F0FF021A43019280884FF6A7
:1012F000FF7240BA02EB0040104A0290183AD2E95D
:101300000C03CDE90303907905900D4A002000BF3E
:1013100052F8203041F82430401C641C3228F7D3A6
:10132000084D284600F096FCA2B26946284600F017
:10133000B3FC39B030BD00004E434F4C18000020C4
:10134000E800002000FC00081CB500238DF8000018
:10135000034801911A466946C06804F037FA1CBD7B
:101360000000002070B5044632280DD20D4602461A
:1013700001200021FEF77CFF094ED6E90C2325B1A0
:1013800010431943C6E90C0170BD22EA000023EAAC
:101390000101C6E90C010349002041F8240070BD99
:1013A00000000020E80000200B48807803280BD0C4
:1013B0000AA302280AD00BA2012809D00BA148B128
:1013C0000DA000BF00F016B90DA3F2E70EA2F3E7DF
:1013D0000FA1F4E711A0F5E70000002020342E56FD
:1013E0004F4C000020332E505744000020322E4630
:1013F000494E47455200000020312E4341524400DF
:101400003E342E564F4C00003E332E5057440000C1
:101410003E322E46494E4745520000003E312E4393
:101420004152440000B585B06946FFF7E4FA6B46C7
:1014300003A203A103A000F0DDF805B000BD000089
:101440000000000041444D494E2050574400000028
:1014500010B50F4986B00DA00C89611E312906D840
:10146000C8B2FFF7E3FA08B10AA000E00AA00090B2
:1014700023460AA2112101A8FEF720FF0AA30AA20F
:1014800001A90AA000F0B6F806B010BD2D2D00008D
:1014900000000020594553004E4F000049443A25B2
:1014A0003033752025730000000000004341524492
:1014B0000000000010B5124986B00B464A795C89DD
:1014C0000EA062B12246322C09D8D1E90E01FEF7F6
:1014D000E2FE10F0010F01D00AA000E00AA0009087
:1014E00023460AA2112101A8FEF7E8FE0AA30AA2D8
:1014F00001A90AA000F07EF806B010BD2D2D000055
:1015000000000020594553004E4F000049443A2541
:1015100030337520257300000000000046494E4717
:101520004552000000B903A0034606A209A10DA080
:1015300000F060B843202020302020205220204F8F
:101540004B00000037202020382020203920202088
:10155000410000003420202035202020362020208B
:101560004400000031202020322020203320202081
:10157000550000002DE9F0418AB0804616466F46BE
:101580000D460846FFF708F80446102800D9102435
:10159000202210213846FFF7AEF822462946384669
:1015A000FFF764F800248DF8104010226946304699
:1015B000FFF711F800281AD02022102105A8FFF704
:1015C0009AF84FEA48058DF82440E9B20E2305AA9F
:1015D000002002F02DFAE9B20E236A46002002F044
:1015E00027FA102269463046FFF7B4F834740AB07F
:1015F000BDE8F08170B50C46164601461D460C4A02
:101600000020FFF7B7FF0A4A214611320120FFF7F9
:10161000B1FF074A314622320220FFF7ABFF2946CD
:10162000034ABDE8704033320320FFF7A3BF000038
:10163000B001002000B585B06946FFF7DCF96846C7
:10164000FFF770FF05B000BD00B585B06946FFF734
:10165000D2F9044A6B46114603A0FFF7CBFF05B051
:1016600000BD0000401400084E455720505744006C
:1016700000B50B4887B08379052B00D300230520E4
:10168000009008A2112101A85B1CFEF717FE08A319
:1016900007A201A907A0FFF7ADFF07B000BD00003A
:1016A000000000204C4556454C2025752F2575001F
:1016B00000000000564F4C554D4500000EB502F09D
:1016C000E8F802F0AFF800204E49054600EB0012A2
:1016D000401CC0B28D540428F8D30020FFF722FF2D
:1016E000494C012049496570A570208160812570B1
:1016F000E570656125710020C4E90E00657104F193
:10170000240001F019FEFFF77FFD4148A179415CFB
:1017100004F1240001F04FFE3D4E0525143EC82281
:101720006946E06804F062F9012805D06069002884
:10173000F5D0FFF70DFDF2E79DF8000002281AD062
:1017400003281FD0012826D048B30428E7D10198E8
:101750000199000C8FB2012826D0022834D003282A
:101760003BD004283DD00528D9D160780528D6D1B2
:10177000FFF7A0FED3E7FFF7EBFC0028CFD106214F
:1017800024A01EE00198C0B24F28C8D1FFF7E0FCAA
:101790000028C4D110E00198FFF764FABFE7019870
:1017A000C0B2FFF7ABFABAE7FFF7D2FC0028B6D118
:1017B00060780028B3D117B100F036F8AFE7022106
:1017C00016A0FFF781F9AAE70FB1072000E0062075
:1017D000FFF778FD6570F0680BE00420FFF772FDFD
:1017E0009DE70FB1082000E00620FFF76BFD657054
:1017F0003069002302901A4602A9206903F0E6FF2F
:10180000B6E70000B001002000000020D802002050
:10181000C85F00085348414B4500000046494E4709
:10182000455220455252000010B50120FFF74AFDF5
:101830000821134802F058FC4FF4FA74204603F0D4
:10184000DDFD08210E4802F07FFC600003F0D6FDAC
:1018500008210B4802F060FC204603F0CFFD082170
:10186000074802F071FC074800210170C170407800
:10187000002803D1BDE81040FFF754BE10BD0000A2
:1018800048020020000000200748418882889142D9
:1018900003D341888088081A04E081884088C1F514
:1018A0008071084480B27047D400002004480021B1
:1018B0004180818001460122024801F057BC0000AE
:1018C000D400002090020020074948888A8890426E
:1018D00002D14FF0FF30704704488A88805C8A88C4
:1018E000521CD2B28A807047D40000205C40002095
:1018F000FEE700EB1120C9B210B50144002003E05F
:10190000145C401C214480B29842F9D388B210BDC7
:1019100070B50446049D02F096FB002806D02946C7
:101920002046A268BDE8704002F0D8BA70BD70478A
:101930000549064A0968B1FBF2F14143880800E015
:1019400000BF401EFCD270475000002040420F00F4
:10195000022000F033BB72B6FEE74FF47A714843C1
:10196000B0FBF1F003F04ABD30B593B00446154624
:1019700012A802F0AFFE29460DF14A0002F0AAFEBD
:1019800001A80090042312AA0C212046FFF7C0FFF3
:1019900018B19DF80400002800D0012013B030BD1C
:1019A0002DE9F043894693B016460546114602F0EC
:1019B0006DFE002843D10121284600F099F9002846
:1019C0003DD14FF49670FFF7C8FF00F07BF800F0B0
:1019D000FBFB074601240DF104082AE000231A4608
:1019E00001212846CDF80080FFF792FFF0B19DF865
:1019F0000400022801D0C8B13BE03146284602F07D
:101A000045FE00281BD10221284600F071F900286C
:101A100015D101A90023009128461A460521FFF798
:101A200077FF30B39DF8040018BB0BE03220FFF7BE
:101A300094FF00F0C9FBC11BB142CFD3022013B009
:101A4000BDE8F08301208DF8480049460DF14900BA
:101A500002F040FE01A80090032312AA06212846A6
:101A6000FFF756FF28B19DF804000028E7D00120B9
:101A7000E5E72046E3E72DE9FC410F46DDE90851A3
:101A80001C461646804602F001FE00280DD10121B9
:101A9000404600F02DF9002807D133463A4601218F
:101AA0004046CDE9004502F097FABDE8FC810028E8
:101AB00006D001604FF0FF3141604FF47A718160D0
:101AC000704700001CB5064900233222D1E9070106
:101AD000CDE9000103486946C06803F077FE1CBDEC
:101AE000B45F00080000002070B594B01D461400DB
:101AF00011D085B18DF8481001AE012312AA1F2123
:101B00000096FFF705FF30B19DF8040018B9BDF845
:101B10000600A84202D9012014B070BD002004E0E4
:101B2000311809792154401C80B2BDF80610814259
:101B3000F6D80020F0E7002800D081607047000050
:101B400006490020C8610648016941F004010161AD
:101B5000016941F040010161704700006803002005
:101B600000200240064A0021D16106490A6942F07C
:101B700002020A614861086940F04000086170474C
:101B80006803002000200240044B0022DA61044A6E
:101B9000136943F00103136101807047680300205B
:101BA0000020024014480022C168CB06134904D526
:101BB000CA6942F00202CA611022C3685B0705D5F8
:101BC000CB6943F00103CB6142F00402C369DB0738
:101BD00007D0CB6943F00403CB61C16921F0010157
:101BE000C161A2F58071013901D0C2607047C1693D
:101BF00021F00101C161704700200240680300200C
:101C000070B5054600F0E0FA0646114C09E0681C84
:101C100007D025B100F0D8FA801BA84201D90320D3
:101C200070BDE068C007F2D1E068800601D52020D1
:101C3000E060E068C00605D4E069C00702D1E06852
:101C4000400703D5FFF7AEFF012070BD002070BD37
:101C50000020024030B50446A0F1006085B0B0F528
:101C6000803F02D3032005B030BD0025049500F06D
:101C700071F90120CDE9024004A90095684600F001
:101C8000CBF8044600F01CF90CB10120EBE7002072
:101C9000E9E70068704700002DE9F04116460F465D
:101CA0000446B0F1006F04D3104904EB860088426B
:101CB00002D90320BDE8F08100F04CF900250EE0C8
:101CC00057F8252000232146022000F003F918B11F
:101CD00000F0F6F80220EDE76D1CADB2241DB54210
:101CE000EED300F0EDF80020E4E70000000001086A
:101CF00000B593B001238DF8481001A9009112AAF4
:101D00000221FFF705FE18B19DF80400002800D05D
:101D1000012013B000BD10B590F821100022022957
:101D200005D00421816380F82020012010BD0168C6
:101D30000B6823F00E030B6001680B6823F00103AE
:101D40000B6090F84030C46B012101FA03F363602B
:101D500080F8211080F82020104610BD10B590F8B2
:101D600021100024022903D00421816301243DE0D5
:101D700001680A6822F00E020A6001680A6822F00F
:101D800001020A601A4A0168914201D1012121E051
:101D9000174A1432914201D110211BE0144A283213
:101DA000914201D1891515E0114A3C32914201D18D
:101DB00089140FE00E4A5032914202D14FF4803123
:101DC00008E00B4A6432914202D14FF4801101E0E5
:101DD0004FF08071064A083A5160012180F82110C5
:101DE000002180F82010416B01B18847204610BDCA
:101DF0000800024070B5044600F0E6F90546601C94
:101E000002D004480078044400F0DEF9401BA042F0
:101E1000FAD370BD440000202DE9F047054626485E
:101E20000F460126017E01290FD00121814601764E
:101E30002868DFF888804CF25034022808D0A24687
:101E40002046FFF7DDFEA8B131E00220BDE8F087B3
:101E50002046FFF7D5FE08BB0120FFF771FE2046A4
:101E6000FFF7CEFED8F81010064621F00401C8F89E
:101E700010101CE04FF0FF303860AC6811E02046D5
:101E8000FFF770FE5046FFF7BBFED8F810100600B3
:101E900021F00201C8F8101001D03C6007E004F501
:101EA0008064D5E9020100EB8120A042E7D800213F
:101EB00089F818103046C9E7680300200020024066
:101EC0000348016941F08001016100207047000072
:101ED000002002402DE9F05F07461C488846002498
:101EE000017E15461E46012909D001218146017651
:101EF0004CF2503A5046FFF783FE18B122E0022020
:101F0000BDE8F09F012F02D0022F00D00427D34656
:101F1000DFF83CA0220128463146FEF7BCF981B229
:101F200008EB4400FFF730FE5846FFF769FEDAF889
:101F3000102022F00102CAF8102018B9641CE4B283
:101F4000BC42E7D3002289F81820D9E768030020B3
:101F500000200240064900200A69120607D5054AFA
:101F60004A60054A4A600969090600D501207047A0
:101F70000020024023016745AB89EFCD1CB5022844
:101F800017D1002000900190072000F073FA094853
:101F900000236A4601A9006903F0C8FC00980028E4
:101FA00007D005494FF080500860BFF34F8FBFF353
:101FB0006F8F1CBD0000002004ED00E0044910B547
:101FC0000A68024202D00860FFF7D8FF10BD000087
:101FD000140401402DE9F84FDFF8B8910024A9F16D
:101FE000040B23460F2709F1040AABF1040EC9E0E4
:101FF0000125A5402A40AA427DD1674ED1F804C0F0
:10200000ACEB0608B44532D014DCBCF1030F3AD077
:1020100009DCBCF1000F2AD0BCF1010F1CD0BCF1CF
:10202000020F31D11DE0BCF1110F17D0BCF1120F1E
:102030002AD119E0B8F5881F19D006DCB8F5803F21
:1020400015D0B8F5801F1FD111E0B8F5001F0ED0D4
:10205000B8F5041F18D10AE0CB6815E0CB681B1D4A
:1020600012E0CB6808330FE0CB680C330CE08B68D0
:102070002BB1012B4FF0080303D0456104E004238A
:1020800002E0056100E00023FF2A01D8064601E0D6
:1020900000F104064FEA840501D9A5F12005D6F820
:1020A000008007FA05FC28EA0C0803FA05F548EA5F
:1020B0000508C6F800804D68ED0062D5374DAE6961
:1020C00046F00106AE61AD6924F0030605F0010596
:1020D0000095334D06EB050CDCF80850A607360FCB
:1020E00007FA06F825EA0805DFF8B880404503D16D
:1020F0004FF0000817E044E0DFF8AC80404502D123
:102100004FF001080FE0DFF8A480404502D14FF006
:10211000020808E0DFF89880404502D14FF003083C
:1021200001E04FF0040808FA06F848EA0508CCF880
:1021300008804D68D9F80060ED024D4601D5164380
:1021400000E096432E604D68DAF80060AD02554617
:1021500001D5164300E096432E604D68DBF8006021
:10216000AD035D4601D5164300E096432E604D68F1
:10217000DEF80060ED03754601D5164300E0964396
:102180002E60641C0D682A46E5407FF431AFBDE83F
:10219000F88F0000080401400000111000100240F8
:1021A0000000014000080140000C01400010014007
:1021B000001401408068084000D0012070470AB137
:1021C000016170470904FBE701488068704700001F
:1021D0004400002070B5040025D094F83D0000258F
:1021E00020B984F83C50204600F0B8F8242084F848
:1021F0003D002068016821F001010160206801684C
:1022000041F4004101602068016821F4004101604F
:1022100000F016FA4D4A6168914201D84C4900E03D
:102220004C49884201D2012070BD4B492368B0FB64
:10223000F1F15E6826F03F060E435E6063689342EC
:1022400006D94FF4967359434FF47A73B1FBF3F107
:102250002368491C1E6A26F03F06314319626168F3
:10226000914210D84900401EB0FBF1F2521CC2F35B
:102270000B02042A01D2042022E0B0FBF1F0401C42
:10228000C0F30B001CE0A268F2B301EBC10303EB47
:102290000116431EB3FBF6F35B1C43F480431B059E
:1022A00049D092B301EBC10202EB0111401EB0FB19
:1022B000F1F0401CC0F30B0040F4804040F40040BB
:1022C0002168CA694CF6FF739A431043C861D4E988
:1022D000071001432068026822F0C0021143016028
:1022E000D4E9030101432068826848F2FF339A432E
:1022F00011438160D4E9050108432168CA6822F0CE
:10230000FF021043C86001E00EE016E0206801689B
:1023100041F0010101602564202084F83D0025631F
:1023200084F83E50002070BD01EB4106431EB3FB14
:10233000F6F35B1CB3E70120C2E701EB4101401E4D
:10234000B0FBF1F0401CC0F30B00B7E7A086010022
:1023500080841E0000093D0040420F0010B586B089
:102360000021009101910291039100680F49884278
:102370001AD10F4CA06940F00800A061A06969461D
:1023800000F008000490C02000901220019003206B
:1023900003900848FFF71EFEE06940F40010E0617A
:1023A000E06900F40010049006B010BD0054004035
:1023B00000100240000C014002488168027811447C
:1023C0008160704744000020074810B5016841F063
:1023D00010010160032000F08BF80F2000F006F8D8
:1023E00000F024F8002010BD0020024070B50D4D13
:1023F00004464FF47A712878B1FBF0F00A49096875
:10240000B1FBF0F000F0F2FA48B9102C07D200222C
:102410002146501E00F04CF800206C6070BD012079
:1024200070BD000044000020500000200F4808B597
:10243000816941F001018161816901F0010100912F
:10244000C16941F08051C161C069002200F0805033
:1024500000900F21901E00F02BF80548416821F0F4
:10246000E06141F00071416008BD000000100240D1
:102470000000014000280DDB00F01F020121914007
:102480004009800000F1E020C0F88011BFF34F8FB9
:10249000BFF36F8F7047002809DB00F01F02012196
:1024A00091404009800000F1E020C0F80011704721
:1024B000F0B40E4B1B680C46C3F30223C3F10705AF
:1024C000042D00D90425191D072901D2002300E09D
:1024D000DB1E012606FA05F1491E214099409E4067
:1024E000761E16403143F0BC02F05AB90CED00E004
:1024F000064900F0070208684FF6FF03184040EA5B
:102500000220034A10430860704700000CED00E011
:102510000000FA052DE9F0470F46050061D0434E53
:10252000306800F00700B84209D2306820F0070098
:1025300038433060306800F00700B84251D1286855
:102540003B4C810712D5400703D5606840F4E0603A
:1025500060602878000703D5606840F460506060D0
:102560006068A96820F0F000084360602878C00720
:1025700028D06868012810D02168022810D0890767
:1025800000292EDA616821F0030101436160FFF741
:102590001BFE804641F288390DE021688903EFE790
:1025A0008901EDE7FFF710FEA0EB0801494502D9CC
:1025B0000320BDE8F0876068696800F00C00B0EBAC
:1025C000810FEFD1306800F00700B8420BD93068B6
:1025D00020F0070038433060306800F00700B84250
:1025E00001D00120E5E72878400705D56068E96853
:1025F00020F4E060084360602878000706D5606832
:10260000296920F4605040EAC100606000F038F8A9
:102610006168084AC1F30311515CC840064908606B
:1026200006480068FFF7E2FE0020C2E700200240F3
:10263000001002400E6000085000002048000020FA
:102640000448054900684968044AC1F30221515C05
:10265000C840704750000020001002401E60000873
:102660000448054900684968044AC1F3C221515C25
:10267000C840704750000020001002401E60000853
:102680000E4A51680E4801F00C03042B11D0082BA0
:102690000FD10C48C1F38343C903C05C0AD551680C
:1026A000084AC1F34041921E515C054A5043B0FBB9
:1026B000F1F07047044948437047000000100240A1
:1026C00000127A00FE5F000800093D002DE9F84F76
:1026D000040070D02078C04DC00749D06868C0F3AE
:1026E0008100012807D06868C0F38100022809D161
:1026F0006868C00306D52868800339D5606800285B
:10270000E7D035E06068B0F5803F0BD010B1B0F590
:10271000A02F11D0286820F480302860286820F489
:10272000802002E0286840F480302860606890B122
:10273000FFF74AFD06460AE0286840F4802028603A
:10274000F0E700BFFFF740FD801B642873D82868BE
:102750008003F7D50CE0FFF737FD064605E000BF24
:10276000FFF732FD801B6428F0D828688003F7D477
:1027700020789A4E80074FF001094FF0000839D5B4
:10278000686810F00C0F07D06868C0F38100022859
:1027900009D16868C00306D42868800714D5206969
:1027A000012808D110E02069B0B1C6F80090FFF709
:1027B0000BFD074605E00AE1FFF706FDC01B0228F6
:1027C000C4D828688007F7D52868616920F0F80028
:1027D00040EAC10028600DE0C6F80080FFF7F4FC75
:1027E000074604E0FFF7F0FCC01B022823D8286846
:1027F0008007F7D4207800072CD57948A169D9B192
:10280000C0F80090FFF7E0FC074604E0FFF7DCFCAF
:10281000C01B02280FD8686A8007F7D571484FF4AB
:10282000FA510068B0FBF1F0009000BF0098411E23
:102830000091FAD20EE080E0C0F80080FFF7C4FCFF
:10284000074604E0FFF7C0FCC01B022875D8686A81
:102850008007F7D42078400760D5E8690027C000DA
:1028600008D4E86940F08050E861E869012700F089
:10287000805000905C480168C90513D40168834604
:1028800041F480710160FFF79FFC824606E000BFC3
:10289000FFF79AFCA0EB0A0064284ED8DBF8000092
:1028A000C005F5D5E06801280AD008B1052813D085
:1028B000286A20F001002862286A20F0040002E063
:1028C000286A40F001002862E06841F2883B98B134
:1028D000FFF77AFC82460BE0286A40F00400286289
:1028E000EEE700BFFFF770FCA0EB0A0159455AD88C
:1028F000286A8007F6D50CE0FFF766FC824605E003
:10290000FFF762FCA0EB0A0159454CD8286A800702
:10291000F6D41FB1E86920F08050E861E06988B31F
:102920006968C1F38101022944D00228C6F8608099
:1029300004D0FFF749FC044638E034E0FFF744FCDC
:10294000074604E0FFF740FCC01B02282BD828688C
:102950008001F7D4206AB0F5803F05D16868A1688E
:1029600020F4003008436860D4E90801084369682E
:1029700021F4741108436860C6F86090FFF724FCE6
:10298000044606E025E000BFFFF71EFC001B0228FE
:1029900009D828688001F7D51BE000BFFFF714FCB9
:1029A000001B022802D90320BDE8F88F28688001A7
:1029B000F4D40EE00128F7D06868226A00F4803170
:1029C000914204D1616A00F47010884201D0012064
:1029D000EAE70020E8E70000001002400000424261
:1029E00080044242500000200070004010B5401E9C
:1029F000B0F1807F01D3012010BD4FF0E024606171
:102A00000F21601701F0CCFE0020A061072020619B
:102A1000002010BD70B590F83C20012A26D001247A
:102A200080F83C40022280F83D2003685A689D6887
:102A300022F070060A6832435A600D4B02689A42CF
:102A400008D0B2F1804F05D00A4B9A4202D00A4B0F
:102A50009A4204D1496825F080031943916080F8B7
:102A60003D40002180F83C10084670BD022070BD3A
:102A7000002C0140000400400008004000B585B073
:102A80000021009101910291039100680B49884255
:102A900012D10B48816941F0080181618069694662
:102AA00000F0080004904FF4807000900220019024
:102AB00003900448FFF78EFA05B000BD00080040FF
:102AC00000100240000C014070B5044690F83C0034
:102AD00000260D4601280FD0012084F83C006AB181
:102AE000042A1DD0082A2FD00C2A3FD0012600200E
:102AF00084F83C00304670BD022070BD206801F0B3
:102B0000C5FB2068816941F0080181612068816905
:102B100021F004018161206881692A69114311E073
:102B2000206801F0DBFB2068816941F4006181616C
:102B30002068816921F480618161206881692A6946
:102B400041EA02218161D2E7206801F0F3FB2068AD
:102B5000C16941F00801C1612068C16921F0040127
:102B6000C1612068C1692A69114311E0206801F040
:102B70000DFC2068C16941F40061C1612068C16930
:102B800021F48061C1612068C1692A6941EA02219A
:102B9000C161ACE710B5040003D094F83D0010B15A
:102BA00007E0012010BD002084F83C00204600F022
:102BB0001FF8022084F83D00211D206801F01CFB55
:102BC000012084F8460084F83E0084F83F0084F831
:102BD000400084F8410084F8420084F8430084F8FF
:102BE000440084F8450084F83D00002010BD00003A
:102BF00008B500680649884208D10648C16941F015
:102C00000401C161C06900F00400009008BD00002B
:102C1000000800400010024010B50446022249B1ED
:102C200004290ED0082913D094F84100012816D0A9
:102C3000012010BD94F83E000128F9D184F83E200F
:102C40000FE094F83F000128F2D184F83F2008E01B
:102C500094F840000128EBD184F8402001E084F88A
:102C600041200122206801F003FB0F4920688842BF
:102C700003D1426C42F4004242642068884208D08A
:102C8000B0F1804F05D00949884202D008498842F6
:102C900004D1816801F00701062903D0016841F0E1
:102CA00001010160002010BD002C01400004004023
:102CB0000008004070477047F8B50168044608688E
:102CC000CA684B6910F00F0F4FF0000559D003F0A0
:102CD000010602F49077374365D0C10705D0D105CE
:102CE00003D5616C41F001016164410705D5D90745
:102CF00003D0616C41F002016164810705D5D907F9
:102D000003D0616C41F004016164010707D502F052
:102D10002001314303D0616C41F008016164616CB2
:102D200000293AD0800604D5900602D5204601F04D
:102D30007EFB20684069616CC0F38010090700D4F5
:102D400060B3204601F04CFB20684069400621D565
:102D50002068143050E8001F21F0400140E80012C4
:102D6000002AF5D1E06BA8B16D494163E06BFEF735
:102D7000F5FF002811D0E06B416B01B0BDE8F040D9
:102D8000084783060FD593060DD52046BDE8F840C9
:102D900001F04DBB2046FFF78EFFF8BD2046FFF740
:102DA0008AFF6564F8BD266B2023012E7CD1C60600
:102DB0007AD5D60678D508684868009048694FF0FB
:102DC0000206400640D5E16B086840680004000C2C
:102DD000E8D0A28D8242E5D9E085886920282DD0EF
:102DE00020680C3050E8001F21F4807140E8001288
:102DF000002AF5D12068143050E8001F21F00101AD
:102E000040E80012002AF5D12068143050E8001F75
:102E100021F0400140E80012002AF5D184F8423048
:102E2000256320680C3050E8001F21F0100140E8B5
:102E30000012002AF5D1E06BFEF76DFF6663A08DEE
:102E4000E18D401A81B22AE0A08DE18D401A81B255
:102E5000E08D0028A6D00029A4D022680C3252E8C8
:102E6000000F20F4907042E80007002FF5D1206891
:102E7000143050E8002F22F0010240E80027002F14
:102E8000F5D184F84230256320680C3050E8002FDB
:102E900022F0100240E80023002BF5D166632046A3
:102EA000FFF708FFF8BDFFE705062BD5150629D566
:102EB00094F841002128F5D1A068B0F5805F01D1D8
:102EC0002069B0B1206A411C216221680078486005
:102ED000E08C401E0004000CE084E3D12068C1684F
:102EE00021F08001C1602068C16841F04001C160EB
:102EF000D8E7206A0088C0F308004860206A801C78
:102F00002062E5E74006CDD55006CBD5CA682046FD
:102F100022F04002CA6084F8413000F0A7F9C1E70E
:102F2000D143000870B5040004D094F84100002596
:102F300010B106E0012070BD84F84050204600F03A
:102F400023F8242084F841002068C16821F400514E
:102F5000C160204601F0CCFA2068016921F490415B
:102F600001612068416921F02A0141612068C1683E
:102F700041F40051C1606564202084F8410084F868
:102F800042006563002070BDF0B585B00024009458
:102F90000194029403940368424F022042490322A1
:102FA000424D4602BB4225D18B6943F480438B617D
:102FB0008B6903F4804304938B6943F004038B61B2
:102FC0008969039201F0040104910102CDE9001026
:102FD00069462846FEF7FEFFCDE9006469462846AB
:102FE0000294FEF7F7FF002205212520FFF760FA83
:102FF000252028E02E4FBB4229D1CB6943F4003372
:10300000CB61CB6903F4003304938B6943F0040371
:103010008B618969039201F0040104910421CDE9D7
:10302000001069462846FEF7D5FF0820CDE90004C8
:10303000694628460294FEF7CDFF0022052126208E
:10304000FFF736FA2620FFF726FA05B0F0BD194D36
:10305000AB42FAD1CB6943F48023CB61CB6903F453
:10306000802304938B6943F008038B618969124DB7
:1030700001F00801CDE90321CDE900606946284649
:10308000FEF7A8FFE814CDE900046946284602943B
:10309000FEF7A0FF002205212720FFF709FA2720CD
:1030A000D1E7000000380140001002400008014054
:1030B0000044004000480040000C01402DE9F84F5A
:1030C000044690F842009A4616460D46202802D043
:1030D0000220BDE8F88FB5B1AEB1002060642221B6
:1030E00084F842102063FFF76FF8A6858146E685D5
:1030F000A0684FF480582027404501D1206920B1B5
:103100002E46002529E00120E3E7002625E04B4676
:10311000002220212046CDF800A001F060FA18B16D
:1031200084F842700320D4E726B1A06840451AD045
:1031300038B108E020684068C0F3080025F8020BA9
:1031400008E0206978B12068406800F07F0000BF87
:1031500006F8010BE08D401EE085E08D0028D6D1F9
:1031600084F84270B5E720684068F1E790F8423093
:10317000202B01D00220704721B11AB10023036334
:1031800001F012BA0120704730B400680B49884240
:1031900011D10B4841888288491CC9B2914204D0A0
:1031A0000278084B44881A55418030BC01220449FA
:1031B0000548FFF7DBBF30BC704700000038014016
:1031C000D40000205C400020900200202DE9F8434C
:1031D000044690F84100984616460D46202802D035
:1031E0000220BDE8F88385B17EB100206064212013
:1031F00084F84100FEF7E8FFA6848146E684A068D3
:103200002027B0F5805F02D003E00120E9E72069C4
:1032100010B12E4600250EE000260CE0802120464D
:1032200001F0DDF9A8B9C6B116F8010B21684860B4
:10323000E08C401EE084E08C4B464FF00002CDF85D
:1032400000800028EAD14FF04001204601F0C7F984
:1032500040B184F841700320C3E735F8020BC0F396
:103260000800E3E784F841700020BAE77047FEE702
:1032700070B50122124D940321462846FEF79FFFA8
:103280000122D60331462846FEF799FF00F0F8FAEE
:10329000012221462846FEF792FF00F0F1FA0022B3
:1032A00021462846FEF78BFF00F0EAFA002231465D
:1032B0002846FEF784FFBDE8704000F0E1BA000048
:1032C0000010014070B50D4D4FF48044002221469E
:1032D0002846FEF774FF00F0D3FA0122D1032846F6
:1032E000FEF76DFF00F0CCFA012221462846FEF7DA
:1032F00066FFBDE8704000F0C3BA00000010014056
:1033000070B50C4C012291032046FEF758FF00F0E7
:10331000B7FA0122D50329462046FEF750FF00F0F8
:10332000AFFA002229462046FEF749FFBDE870406B
:1033300000F0A6BA00100140002802D0016064210C
:103340004160704708B50A0A8DF800208DF8011019
:1033500002236A46072100F001F808BDFEB50028E7
:1033600028D00468002C25D0AA248DF800408DF8C0
:10337000011003216D468DF80230002405E0165D32
:103380006E54491C641CC9B2E4B29C42F7D30023BA
:103390002C461A4604E0A65C521C33449BB2D2B2BF
:1033A0000E468A42F7D36B54711CCAB209C8214633
:1033B000FFF70CFFFEBD08B501238DF800106A462B
:1033C0001321FFF7CBFF08BD10B50B4C01221021D4
:1033D0002046FEF7F4FE012220212046FEF7EFFEF4
:1033E000012240212046FEF7EAFE20460122BDE8E8
:1033F00010408021FEF7E3BE0008014010B500F048
:1034000013F8002809D000215FF0010303FA01F24C
:10341000024201F1010101D0C8B210BDC9B21029A8
:10342000F4D3002010BD00002DE9F05F524E0024BF
:10343000224610213046FEF7C2FE504DB7143946E1
:103440002846FEF7B7FE00B901244FF4005949465B
:103450002846FEF7AFFE08B944F002044FF4804A54
:1034600051462846FEF7A6FE08B944F004044FF47E
:10347000004B59462846FEF79DFE08B944F0080463
:10348000012210213046FEF79AFE0022202130460C
:10349000FEF795FEB84639462846FEF78BFE08B97A
:1034A00044F0100449462846FEF784FE08B944F06B
:1034B000200451462846FEF77DFE08B944F040043A
:1034C0005F4659462846FEF775FE08B944F0800469
:1034D000012220213046FEF772FE002240213046B4
:1034E000FEF76DFE41462846FEF764FE08B944F437
:1034F000807449462846FEF75DFE08B944F400741E
:1035000051462846FEF756FE08B944F48064394611
:103510002846FEF74FFE08B944F40064012240211A
:103520003046FEF74CFE002280213046FEF747FE73
:1035300041462846FEF73EFE08B944F48054494609
:103540002846FEF737FE08B944F400545146284691
:10355000FEF730FE08B944F4804439462846FEF7A9
:1035600029FE08B944F40044012280213046FEF7C8
:1035700026FE2046BDE8F09F00080140000C0140F7
:1035800010B5054A0021054801F074F904490860A6
:10359000BDE81040FDF75ABAD85F0008794100082D
:1035A000400000202DE9F04786B0002441480094F7
:1035B000019402940394816941F010018161816951
:1035C00001F010010491816941F02001816181695C
:1035D00001F020010491816941F004018161816958
:1035E00001F004010491816941F008018161806961
:1035F000DFF8C48000F008004FF440450490012239
:1036000029464046FEF7DBFDDFF8B09048F6F107AB
:10361000012239464846FEF7D2FDDFF8A4A0012278
:1036200018215046FEF7CBFD1120CDE900500125B1
:103630000326CDE9025669464046FEF7CBFC0097CB
:103640000396CDE9015469464846FEF7C3FCCDE92F
:103650000054694650460294FEF7BCFC022019490A
:103660000290CDE9000169465046FEF7B3FC4FF4E5
:1036700070408DE8310069465046FEF7ABFC2803E8
:103680008DE8310069464846FEF7A4FC1820CDE9D4
:103690000005CDE9024669465046FEF79BFC002234
:1036A00005210720FEF704FF0720FEF7F4FE06B011
:1036B000BDE8F08700100240001001400008014002
:1036C000000C0140000011100D4810B50B490160BD
:1036D0000C49416000214FF480428160C0E903122F
:1036E00041618161C1610162FEF774FD002803D070
:1036F000BDE81040FEF72FB910BD00000054004097
:10370000F4010020A086010010B58AB000240794BF
:103710001C2168460894FCF7F6FF1648144901601E
:103720004721C0E9011444F61F61C0E90314846114
:10373000FFF730FA08B1FEF70EF9079407A90D4814
:103740000894FFF767F908B1FEF705F96020CDE9A5
:10375000000402940822694606480494FFF7B4F96D
:1037600008B1FEF7F8F80348FFF788F90AB010BD72
:1037700000080040480200200C4810B50A490160CA
:103780004FF416514160002181600C22C160C0E9F4
:1037900004128161C161FFF7C5FB002803D0BDE8B9
:1037A0001040FEF7D8B810BD00380140900200204C
:1037B0000C4810B50A4901604FF4165141600021D0
:1037C00081600C22C160C0E904128161C161FFF710
:1037D000A9FB002803D0BDE81040FEF7BCB810BD1F
:1037E00000440040D80200200C4810B50A4901608E
:1037F0004FF461414160002181600C22C160C0E949
:1038000004128161C161FFF78DFB002803D0BDE880
:103810001040FEF7A0B810BD004800402003002073
:10382000FEE7FEE770B50024002104F1B00000F0CF
:103830001AF90021022000F016F90021102000F0F2
:1038400012F900250121002000F00DF96D1CEDB2E8
:10385000802DF7D3641CE4B2082CE5D370BD0000C2
:1038600010B5064C0122D1032046FEF7A8FC2046E5
:103870000122BDE810409103FEF7A1BC00100140F9
:1038800008B50020009000BF401C00901E28FAD30D
:1038900008BD10B5FFF7E4FF3220FEF7ABFA0021B8
:1038A000AE2000F0E0F80021084600F0DCF800212E
:1038B000102000F0D8F80021402000F0D4F80021BA
:1038C000B02000F0D0F80021812000F0CCF80021D9
:1038D000FF2000F0C8F80021A12000F0C4F800216A
:1038E000A62000F0C0F80021A82000F0BCF80021BC
:1038F0003F2000F0B8F80021C82000F0B4F8002103
:10390000D32000F0B0F80021084600F0ACF8002108
:10391000D52000F0A8F80021802000F0A4F80021B4
:10392000D82000F0A0F80021052000F09CF800212C
:10393000D92000F098F80021F12000F094F800213F
:10394000DA2000F090F80021122000F08CF800211D
:10395000DB2000F088F80021302000F084F80021FE
:103960008D2000F080F80021142000F07CF8002168
:10397000BDE81040AF2000F076B810B50A46044606
:10398000002102F1B00000F06EF8A41CC4F3031093
:1039900040F01000002100F066F804F00F00BDE8D0
:1039A0001040002100F05FB82DE9F041203A0024DA
:1039B0000D468046D6B27F2803D900208D1C804654
:1039C000EDB2102B294610D0FFF7D7FF164906EBB2
:1039D000460001EB40050121285D00F044F8641C1D
:1039E000E4B2062CF7D3BDE8F081FFF7C6FF0F4F16
:1039F00004EB06100121385C00F035F8641CE4B2D9
:103A0000082CF5D36D1CE9B24046FFF7B6FF002441
:103A100004EB061038440121007A00F024F8641CFD
:103A2000E4B2082CF4D3DEE7266000084E620008FA
:103A30002DE9F041984617460E46044600250DE054
:103A4000434631462046FFF7AFFF0834E4B2782CF6
:103A500002D90024B61CF6B26D1CEDB27A5D002AC4
:103A6000EED1BDE8F081C0B209B100F082BE00F035
:103A700069BE70B50646082188B00024084600F0EB
:103A8000EFF800210D2000F00FFA80210E2000F049
:103A9000E7F893208DF8040020208DF8050006A893
:103AA00001AB0090022219460C2000F018F80546E0
:103AB00026280DD1002101A8425C7254425C491CA9
:103AC0005440C9B20429F7D3405CA04200D0BB25C2
:103AD00080210E2000F0DCF908B0284670BD2DE9E9
:103AE000FF5F0027BB25DDF838A016468B468146D0
:103AF000B8460C2805D0B9F10E0F05D112271020B9
:103B000001E077273020804647F08001022000F056
:103B1000CBF98021042000F0A3F80021012000F05F
:103B2000C3F980210A2000F0B3F9002405E01BF856
:103B30000410092000F0B8F9641CB442F7D34946D8
:103B4000012000F0B1F9B9F10C0F03D180210D2053
:103B500000F09EF94FF47A76042000F0D7F804467E
:103B6000761E04D0E00702D114EA080FF4D08021B9
:103B70000D2000F075F836B1062000F0C7F810F0FF
:103B80001B0F0CD0BB2580210C2000F081F90021F7
:103B9000012000F089F904B02846BDE8F09F2625F1
:103BA0003C40E00700D0CC25B9F10C0FEBD10A2046
:103BB00000F0ACF804460C2000F0A8F810F0070064
:103BC0004FEAC40101D008390144CAF8001024B1F9
:103BD000122C04D91224002603E00124FBE700265E
:103BE00005E0092000F092F803998855761CA6425A
:103BF000F7D3C8E730B50C460546082187B008461C
:103C000000F02EF807210D2000F04EF903211420BA
:103C100000F03EF906A801AB00908DF80450012297
:103C200019460C20FFF75BFF262802D106991029C0
:103C300002D0BB2007B030BD9DF8041021709DF864
:103C400005106170F6E710B5142000F05FF88007EA
:103C500005D10321BDE81040142000F019B910BDB2
:103C600070B50C46054600F051F820EA04012846DC
:103C7000BDE8704000F018B910B5412826D10821E0
:103C80000846FFF7EDFF3D21112000F00DF98621D8
:103C9000172000F009F97F21262000F005F91E21E8
:103CA0002D2000F001F900212C2000F0FDF88D21DD
:103CB0002A2000F0F9F83E212B2000F0F5F8022030
:103CC000FDF736FEBDE81040FFF7BDBF10BD000098
:103CD00010B50C4C012210212046FEF770FA01228B
:103CE00008212046FEF76BFA074C0122D10320463B
:103CF000FEF765FA20460122BDE81040D102FEF72A
:103D00005EBA0000000C01400008014070B57E2141
:103D100001EA40000A4D40F08004002210212846AC
:103D2000FEF74DFA204600F081F800F04FF8044607
:103D3000012210212846FEF742FA204670BD0000FD
:103D4000000C014070B501221F4DD40221462846C7
:103D5000FEF735FA0120FDF7EBFD0022214628464B
:103D6000FEF72DFA0120FDF7E3FD0122214628464A
:103D7000FEF725FA0120FDF7DBFD0F21012000F001
:103D800093F80120FFF7C2FFC006FAD40120FDF727
:103D9000CFFD3D21112000F087F81E212D2000F0DD
:103DA00083F800212C2000F07FF88D212A2000F0DC
:103DB0007BF83E212B2000F077F8BDE870404021D1
:103DC000152000F071B80000000801402DE9F04115
:103DD000DFF85080144E00244FF480576806050E1B
:103DE000002208213046FEF7EAF90520FDF7A0FD84
:103DF00039464046FEF7DEF9012801D145F00105BC
:103E00000520FDF795FD012208213046FEF7D7F980
:103E10000520FDF78DFD641CE4B2082CDED3284696
:103E2000BDE8F08100080140000C01402DE9F0419F
:103E3000DFF85480154E054600244FF4004728064D
:103E400001D5012200E0002239464046FEF7B7F9CD
:103E50000520FDF76DFD002208213046FEF7AFF981
:103E60000520FDF765FD012208213046FEF7A7F980
:103E70000520FDF75DFD6806641C050EE4B2082C04
:103E8000DDD3BDE8F081000000080140000C0140D6
:103E900070B50C460546FFF739FF40EA0401284695
:103EA000BDE87040AFF3008070B50E467E2101EA98
:103EB0004004094D002210212846FEF780F92046D3
:103EC000FFF7B4FF3046FFF7B1FF2846BDE870406A
:103ED00001221021FEF773B9000C01402DE9F043D7
:103EE00095B0002617460D4681468DF84860FEF7CE
:103EF0006BF90446B9F1000F16D0ADB10FE03B46A7
:103F0000012212A9484600F0B5FB00280DD0EF2E83
:103F100003D19DF8480001280AD09DF84860FEF7BB
:103F200053F9001BB842EAD3002015B0BDE8F08376
:103F30003B46072210A9484600F09CFB0028F4D01D
:103F40009DF84480BDF84500B8F1070F46BAEBD1A3
:103F5000032EE9D3B01E84B2402CE5D83B4622465E
:103F60006946484600F086FB0028DED03B46022228
:103F700013A9484600F07EFB0028D6D0BDF84C00BF
:103F8000234647BA6A4631464046FDF7B2FC8742AF
:103F9000CAD19DF800002870641E6C80002069461C
:103FA00005E00A182B185278401C1A7180B26A88F2
:103FB0008242F6D80120B8E7008840BA7047000076
:103FC00010B501210348FEF7F5F808B1002010BD37
:103FD000012010BD000C01402DE9F04194B00746CE
:103FE000DDE91A658DF8481012AC98461146601C40
:103FF00000F070FB4146E01C00F06CFB01AC0523B7
:1040000012AA042138460094FDF782FCC8B19DF83D
:10401000040010B1092812D013E0BDF806000428EE
:104020000FD31EB1201DFFF7C7FF30801DB1A01DAB
:10403000FFF7C2FF2880002014B0BDE8F081042003
:10404000FAE70120F8E72DE9F043070003F1030048
:1040500085B01E4690460C461FFA80F93ED038685F
:10406000E0B3082E3AD8EF208DF8000001218DF83A
:10407000011078686D46020E8DF80220020C8DF852
:104080000320020A8DF804208DF805008DF8061033
:10409000E81D494600F01EFB8DF809400A24002067
:1040A00006E018F800102955641C401CA4B280B228
:1040B000B042F6D3761CB3B2494601200DF1090295
:1040C000FDF717FC0146281900F004FBA41CA2B25E
:1040D0006946BB683868FFF779F818B1002005B069
:1040E000BDE8F0830120FAE770B50D4604000AD060
:1040F000FEF792FD4FF4FA6035B1042D07D0216828
:10410000082D07D0086470BD2168486370BD216820
:10411000886370BDC86370BD70B50D4604000AD0D9
:10412000FEF77AFD4FF47A7035B1042D07D021687F
:10413000082D07D0086470BD2168486370BD2168F0
:10414000886370BDC86370BD70B50D4604000AD0A9
:10415000FEF762FD40F2DC5035B1042D07D0216836
:10416000082D07D0086470BD2168486370BD2168C0
:10417000886370BDC86370BD012000F03FFBFBE7A2
:1041800010B5FEF719F901F05FFD012803D0BDE875
:10419000104001F06DBA10BD30B58FB028216846CF
:1041A000FCF7B1FA14210AA8FCF7ADFA01210804C2
:1041B000CDE900100024029402250491CDE90750B6
:1041C0004FF4E01009906846FEF780FA08B172B625
:1041D000FEE70F20CDE90A054FF48060CDE90C40E1
:1041E00002210AA80E94FEF795F9002801D072B6B4
:1041F000FEE70FB030BD7047F0B50268194B1A4C9E
:104200001A4D4FF08047984205D0B84203D0A042E3
:1042100001D0A84203D122F070064A683243984286
:1042200005D0B84203D0A04201D0A84203D122F465
:104230004074CA6822434C6922F080022243026023
:104240008A68C2620A688262984201D10969016380
:10425000012141610169C90703D0016921F0010110
:104260000161F0BD002C0140000400400008004046
:1042700010B501F01F030121046A99408C430462C8
:10428000016A9A401143016210BD000030B5036A13
:10429000026A22F0010202624268846924F0730516
:1042A0000C682C4323F002058B682B430A4DA8426F
:1042B0000BD123F00805CB6822F440722B434D69E3
:1042C00023F0040315438A692A43426084614968E4
:1042D0004163036230BD0000002C014030B5026A2A
:1042E000036A23F010030362436884690D6824F4B1
:1042F000E64444EA05248D6822F0200242EA0512D1
:104300000B4DA8420ED1CD6822F0800242EA051280
:104310004D6923F4406343EA85038D6922F040022E
:1043200043EA85034360846149688163026230BD6A
:10433000002C014030B5036A026A22F480720262E6
:104340004268C46923F4007324F073050C682C439D
:104350008D6843EA05230C4DA8420ED1CD6823F4A5
:10436000006343EA05234D6922F4405242EA0512F4
:104370008D6923F4806342EA05124260C461496892
:10438000C163036230BD0000002C014030B5046AF7
:10439000026A22F4805202624268C3690D6823F403
:1043A000E64343EA05238D6824F4005444EA0534C7
:1043B000064DA84204D14D6922F4804242EA85129A
:1043C0004260C36149680164046230BD002C014051
:1043D00010B5406A0021C185C184FEF76CFC10BD98
:1043E00001680C3151E8002F22F4907241E800235B
:1043F000002BF5D10168143151E8002F22F00102A1
:1044000041E80023002BF5D1016B012909D1016896
:104410000C3151E8002F22F0100241E80023002B5C
:10442000F5D1202180F8421000210163704708B5C2
:1044300090F84210222901D0022008BD82684FF472
:1044400080539A4201D1016921B1816A9A421BD0FD
:104450004AB10AE00268816A5268C2F308020A801F
:10446000816A891C08E0026972B10268526802F030
:104470007F020A70816A491C8162C18D491E09044C
:10448000090CC18503D01BE002685268F1E701689E
:10449000CA6822F02002CA600168CA6822F48072E9
:1044A000CA6001684A6922F001024A61202180F84D
:1044B000421000214163026B012A03D0FEF764FE23
:1044C000002008BD016301680C3151E8002F22F083
:1044D000100241E80023002BF5D101680A68D206DA
:1044E00002D50A6849680091818DFEF7E3FBE7E792
:1044F00070B5044600680169E26821F44051114337
:1045000001612169A0680843616908432168CA689C
:1045100041F20C639A430243CA6020684169A26970
:1045200021F44071114341611E492068884202D143
:10453000FEF796F801E0FEF783F800EBC00101EB0F
:104540000012606864218000B2FBF0F3B3FBF1F36A
:104550006FF018067343B2FBF0F5B2FBF0F605EB13
:104560008305322303EB0515B5FBF1F5B6FBF1F638
:1045700005F0F00505EB0615B2FBF0F6B2FBF0F026
:10458000B0FBF1F06FF01802504306EB800003EB34
:104590000010B0FBF1F0216800F00F0028448860A3
:1045A00070BD00000038014081628285C285002113
:1045B0004164222180F84210016921B10168CA6872
:1045C00042F48072CA6001684A6942F001024A619D
:1045D0000068C16841F02001C160002070472DE9EA
:1045E000F843984617460D460446089E24E0701C82
:1045F00022D0FDF7E9FDA0EB0800B0421AD8CEB1F9
:104600002068C168490717D5802D15D0402D13D0DB
:104610000168C94309070FD401680025406800906C
:104620002046FFF7DDFE0820606484F8405001203A
:10463000BDE8F8830320FBE72068006835EA000046
:1046400004D00020B842D2D00020F1E70120F9E7E1
:104650000148FEF731BB0000900200200148FEF740
:104660002BBB0000D80200200148FEF725BB00004C
:104670002003002010B520B1006810B1FEF71EFD28
:1046800008B1002010BD012010BDFEE7F0B593B0C9
:104690000D460746FDF798FD044601AE13E00023E2
:1046A0001A46012138460096FDF732F940B19DF8CF
:1046B0000400002802D0022802D0012013B0F0BD6F
:1046C0003220FDF74AF9FDF77FFD001BA842E6D333
:1046D0000220F3E70A0A0270417070472DE9F041A9
:1046E000174F04464FF40046002231463846FDF786
:1046F00066FD00254FF4804804F0800080281CD01F
:10470000002241463846FDF75AFD6006040EFFF7C9
:10471000B7F8012231463846FDF751FDFFF7B0F8F2
:10472000002231463846FDF74AFDFFF7A9F86D1C17
:10473000EDB2082DE0D3BDE8F0810122E1E70000F1
:104740000010014010B50446FEF792FD7820FFF7F7
:10475000C5FFFEF7D5FD0020FFF7C0FFFEF7D0FD37
:104760002046FFF7BBFFFEF7CBFDBDE81040FEF78C
:10477000A9BD10B50446FEF77BFD7820FFF7AEFF1C
:10478000FEF7BEFD4020FFF7A9FFFEF7B9FD20466A
:10479000FFF7A4FFFEF7B4FDBDE81040FEF792BDA1
:1047A0000907090E002804DB00F1E02080F800145E
:1047B000704700F00F0000F1E02080F8141D7047F2
:1047C00030380A2801D20120704700207047FDF7D9
:1047D000FBFDFFF7E1FCFEF7E5FEFEF775FFFEF7D8
:1047E00093FFFEF7C9FFFEF7E3FFFEF7FDFF00F0C2
:1047F00013F8FEF7C5FE00F021F8FEE710B5EFF361
:10480000058111B16FF0050403E0002408B100F048
:10481000F5FD204610BD0000EFF3058010B16FF0EC
:10482000050070470448016811B14FF0FF30704730
:104830000121016000207047A400002010B5EFF3B3
:10484000058010B16FF0050010BD0848016801290E
:1048500002D04FF0FF3010BD054A002182F8141D30
:104860000221016000F032FE002010BDA4000020F3
:104870000BE000E02DE9FF414FEA01034FF0000596
:10488000EFF30581039549BB40B38027182100242D
:104890004AB3166806B1344696691EB13146761E93
:1048A000382E02D21679F60703D0002004B0BDE8F6
:1048B000F081566906B1B708D2F808C0BCF1000F04
:1048C0000DD0D5685C2D18D312693AB136B18DE898
:1048D00006103A46214601F08CF903900DE0D668A7
:1048E0005EB912694AB903AACDE90012BAB22146EB
:1048F00001F052F9012800D003950398D6E7000093
:104900002DE9F041134C0F460546E6682068001D6E
:1049100000F040FC681C07D137B12168BDE8F041C8
:104920000D48091D00F086BC20683544B54245603D
:10493000216805D2A06BBDE8F041091D00F062BC02
:10494000606B091D00F05EFCA06A854200D2A56282
:10495000BDE8F08154000020780800202DE9F041E6
:10496000054600F073FC2D4CA068401CA060206838
:104970002B4F10B1606930B32BE02560A06801288F
:1049800027D1002606EB860007EB800000F02CFC08
:10499000761C382EF6D3234800F026FC214814302C
:1049A00000F022FC1F48283000F01EFC1D483C305F
:1049B00000F01AFC1B48503000F016FC19486063E8
:1049C0001430A06305E02068E96AC06A884200D814
:1049D0002560606A401C60626864E86A21698842F8
:1049E00000D9206100EB800007EB8000291D00F05A
:1049F00021FC00F04BFC606900280CD02068E96ABB
:104A0000C06A884207D208494FF080500860BFF35F
:104A10004F8FBFF36F8FBDE8F0810000540000207E
:104A2000C80300202808002004ED00E038B500F09D
:104A30000DFC104C2068C8B90F4800F0D5FB0E489B
:104A4000143000F0D1FB0C48E060143020610A4BB8
:104A50000020F03B009003F1500210210A2000F0EA
:104A60003EFE206010B105A100F092FCBDE8384088
:104A700000F00CBC900000207C090020546D7251A5
:104A80000000000030B4026C0B46002A0BD0C16855
:104A90001144C1608468A14201D30168C16030BC87
:104AA0001846FBF7E3BD30BC70472DE9F041856B3C
:104AB000174604460026026C82B1C7B1E068FBF7D6
:104AC000D5FDE168206C091AE1602268914202D2AA
:104AD000A168081AE060022F16D017E02068A8B974
:104AE000A06801F029F906460020A0600EE0606889
:104AF000FBF7BCFD216C606808446060A1688842D7
:104B000004D32068606001E005B16D1E6D1CA563D3
:104B10003046BDE8F08110B5044690F8590058B110
:104B200001280CD002280FD0502080F31188BFF349
:104B30004F8FBFF36F8FFEE7206B00F0BBFB20466B
:104B4000BDE8104000F0B6BB10BD000010484FF4A7
:104B50004051420706D0C01D0D4920F00700411A00
:104B6000C1F540510B4A00230144C2E90003083952
:104B7000183A21F0070111604B600B600B1AC0E975
:104B8000001393604FF00040536050617047000085
:104B90005C100020C0000020144E154CA6F29C476B
:104BA0004FF08058DFF84C9012E000BF00F04EFB51
:104BB000F068C568281D00F0EDFAA068401EA060EE
:104BC0006068401E606000F061FB2846FFF7A3FFAD
:104BD00060680028EAD138680128F9D9C9F800804E
:104BE000BFF34F8FBFF36F8FF2E700006408002020
:104BF0005400002004ED00E070B51D46049C51B146
:104C0000C4F80020C4E90F010121204600F09AFDFC
:104C100084F84C5070BD2460F4E700002DE9F05F8B
:104C20008846DDE90B941546834691009A460A9E14
:104C3000A522206BFBF75FFD6FF00301206B01EBFA
:104C40008501084420F00707780707D0502080F33B
:104C50001188BFF34F8FBFF36F8FFEE70025B8F1C8
:104C6000000F0FD05FF00000221818F8001082F833
:104C7000341018F8001011B1401C1028F4D384F837
:104C8000435001E084F83450382E00D33726E662D2
:104C9000C4E91365201D00F0B2FA04F1180000F019
:104CA000AEFA2461C6F138006462A061656584F8DB
:104CB000585052465946384600F05AFA2060B9F129
:104CC000000F01D0C9F80040BDE8F09F30B5114990
:104CD00000E011460A688242FBD34B685C188442AC
:104CE00003D1406818444860084643681C18944241
:104CF00009D1084C183C2468A24209D052681A44D1
:104D000042600A6812680260814200D0086030BDCB
:104D10000460F9E7C000002070B5002441600B4D2D
:104D20000061914206D8D11A8269914206D2011DD2
:104D3000286907E09A4203D2994201D3012403E093
:104D4000011DE86800F05EFA204670BD900000206A
:104D500010B5044600F07AFAA06B28B15FF00004A9
:104D600000F094FA204610BD0124F9E730B589B06F
:104D70003C4D6EE00498002806DADDE90601059A4C
:104D800090470498002864DB069C606910B1201DE0
:104D900000F000FA03A800F0D7F8024604980A28A9
:104DA00057D2DFE800F00505052D334A05052D3300
:104DB00094F8280040F0010084F828000599A069C3
:104DC000059B01442046FFF7A7FF68B3216A2046F0
:104DD000884794F8280040073BD5002000900598AC
:104DE000A169002342181946204601F0AFF8D8B94E
:104DF000502080F31188BFF34F8FBFF36F8FFEE712
:104E000014F8280F20F00100207022E094F8280008
:104E100040F0010084F828000598A06128B18118AD
:104E200013462046FFF778FF13E0502080F31188E7
:104E3000BFF34F8FBFF36F8FFEE794F82800810711
:104E400003D4204600F036FA03E020F0010084F895
:104E50002800002204A9286800F0C8FD002889D194
:104E600009B030BD900000202DE9FC410F460546F9
:104E700000F070FB01A800F067F80446019818B133
:104E800000F0D2FFBDE8FC81254EAFB1306900686B
:104E9000D0B30027291B3A46306800F08DFA00F0A5
:104EA000C3FF0028EED11F494FF080500860BFF3C8
:104EB0004F8FBFF36F8FE5E7A542EBD800F0B4FF4B
:104EC000F0682746C068C468201D00F063F994F8B4
:104ED0002800410719D5A0692B4641193A462046BA
:104EE000FFF71AFFA8B100200346014600902A46AA
:104EF000204601F02BF860B9502080F31188BFF3F1
:104F00004F8FBFF36F8FFEE707E020F0010084F8BA
:104F10002800216A20468847B4E70127BAE7000045
:104F20009000002004ED00E00648416B096829B1BB
:104F3000416BC968C9684968816270474FF0FF31A9
:104F4000FAE700005400002070B5054600F08AFE24
:104F5000064E0446B068844203D200F009F80120EE
:104F600000E0002028602046B46070BD9000002062
:104F7000F8B5194D20E0C068C4680668201D00F02F
:104F800009F9216A2046884794F82800400713D57C
:104F9000A0693044B04206D924616060211DE868F0
:104FA00000F030F908E00020034601460090324648
:104FB000204600F0CBFF38B1E86801680029DAD15B
:104FC0002969C5E90310F8BD502080F31188BFF3AB
:104FD0004F8FBFF36F8FFEE79000002008484068B6
:104FE000401C4FF0500080F3118804D0BFF34F8F66
:104FF000BFF36F8FFEE7BFF34F8FBFF36F8FFEE7F7
:10500000C8000020074CE068016841B1C068002179
:10501000D0F80000FFF728FFFFF7A8FEF3E7012113
:105020000020F7E7900000202DE9F041044600F051
:105030000DF994F9455004F1240609E0606A48B17D
:10504000304600F0B9FE08B100F006FA6D1E6DB2F0
:10505000002DF3DC4FF0FF3684F8456000F016F9C0
:1050600000F0F4F894F9445004F1100709E02069C5
:1050700048B1384600F0A0FE08B100F0EDF96D1E11
:105080006DB2002DF3DC84F84460BDE8F04100F01F
:10509000FDB800002DE9F0410546002700F05AFA5E
:1050A000324E306808B9FFF751FD706905424ED1A4
:1050B000C5B3083568070ED005F00700C0F1080039
:1050C0000544680707D0502080F31188BFF34F8F45
:1050D000BFF36F8FFEE72DB37068854237D8234842
:1050E000183001460C6801E020460C466168A94270
:1050F00002D221680029F7D131688C4227D0076895
:105100002168016060680837411B10290FD96019B8
:10511000420708D0502080F31188BFF34F8FBFF3B0
:105120006F8FFEE713E041606560FFF7CFFD6168B8
:105130007068401A7060B268904200D2B0607069C6
:1051400001430020C4E90001F068401CF06000F059
:105150006BFE780707D0502080F31188BFF34F8F84
:10516000BFF36F8FFEE73846BDE8F081A80000204E
:1051700010B5031F4FF080741C601B1F21F001014C
:105180001960191F024B0B60143940380A6010BDBA
:10519000DD4F0008D0E9013201699A60D0E90123AE
:1051A0005A604A68824201D182684A6000220261E4
:1051B0000868401E0860086870470000034B0360E1
:1051C00003F15C000860802010607047A409002093
:1051D000044B036003F15C0008604FF480701060C2
:1051E00070470000000C002000F108014FF0FF3272
:1051F000C0E90112C1600161002101607047002116
:105200000161704730B50B685A1C02D000F10802EA
:1052100002E0026904E02246546825689D42FAD9FA
:1052200053684B6099608A60516008610168491C4D
:10523000016030BD42684A6093688B609368596032
:10524000916008610168491C01607047502080F33B
:105250001188BFF34F8FBFF36F8F0A494868401C16
:10526000486001280CD10848006810F0FF0F07D0F3
:10527000502080F31188BFF34F8FBFF36F8FFEE78D
:1052800070470000C800002004ED00E008494868AD
:1052900028B1401E486001D180F31188704750202A
:1052A00080F31188BFF34F8FBFF36F8FFEE70000CD
:1052B000C800002070B500282AD0164DA0F10804BF
:1052C00060686969084207D1502080F31188BFF3F4
:1052D0004F8FBFF36F8FFEE722683AB1502080F303
:1052E0001188BFF34F8FBFF36F8FFEE78843606075
:1052F00000F030F960686968084468602046FFF78C
:10530000E5FC2869401C2861BDE8704000F08CBDB8
:1053100070BD0000A80000204FF0E02000210161D6
:10532000816105494FF47A720968B1FBF2F1491EB7
:1053300041610721016170475000002010B5FAF764
:1053400073FF114910280ED300F1E02090F8F0030C
:105350000A78904207D2502080F31188BFF34F8F14
:10536000BFF36F8FFEE709480068896800F4E060CA
:10537000884207D9502080F31188BFF34F8FBFF3C5
:105380006F8FFEE710BD0000C80000200CED00E0AC
:1053900010B5084B002200BF53F832401CB1521C1C
:1053A000082AF9D310BD43F8321003EBC20148605C
:1053B00010BD00008803002070B515460E46044657
:1053C000FFF744FF94F944100020491C01D184F8F0
:1053D000440094F94510491C01D184F84500FFF7B9
:1053E00055FFA06B28B92A46314604F1240000F08D
:1053F00051F82046BDE87040FFF716BE10B5020018
:1054000014D00F48006B38B1502080F31188BFF3DF
:105410004F8FBFF36F8FFEE700F09CF8002110461E
:10542000FFF76EFA00F000FD002807D105494FF0A4
:1054300080500860BFF34F8FBFF36F8F10BD000027
:105440005400002004ED00E002490A6A0260C968C5
:10545000416070475400002001490120C861704735
:105460005400002010B50C4650B1094909681831A4
:10547000FFF7C8FE2046BDE810400121FFF740BA03
:10548000502080F31188BFF34F8FBFF36F8FFEE77B
:105490005400002070B514460D4668B10A490968E9
:1054A0001831FFF7C7FE0CB14FF0FF3521462846F3
:1054B000BDE87040FFF724BA502080F31188BFF395
:1054C0004F8FBFF36F8FFEE75400002030B587B0D9
:1054D0000024039405AA04A903A80494FFF76EFE10
:1054E000DDE903010094CDE90110002315A117485F
:1054F000059A00F07EFB164D0028E8621FD000F0F0
:10550000F5FC012809D0401C19D1502080F31188E6
:10551000BFF34F8FBFF36F8FFEE7502080F31188EA
:10552000BFF34F8FBFF36F8F4FF0FF30A8620120A2
:105530006861EC6007B0BDE8304000F045B807B0E6
:1055400030BD000049444C4500000000994B000864
:10555000540000200248016B491C016370470000A1
:1055600054000020164810B5016B11B10121C16132
:1055700010BD0021C1610169124A01E0B9B1491EA3
:1055800001EB810352F82330002BF7D001EB8103AC
:1055900002EB830202F1080453685B685360A34284
:1055A00001D15B685360DA680260016110BD502070
:1055B00080F31188BFF34F8FBFF36F8FFEE70000BA
:1055C00054000020C80300201CB52649087801902B
:1055D000FF20087008788DF800009DF800009DF805
:1055E000002000F0F000904207D0502080F3118896
:1055F000BFF34F8FBFF36F8FFEE79DF800001A4C8B
:1056000000F0500020700720A06005E09DF8002009
:1056100052008DF80020401E9DF800201206F5D49F
:10562000A060032807D0502080F31188BFF34F8F6C
:10563000BFF36F8FFEE74FF44070A06001980870D1
:105640000A48016841F470010160016841F070414D
:105650000160FFF761FE00206060FAF7AFFD0020F7
:105660001CBD000000E400E0C800002020ED00E0C8
:1056700010B5502080F31188BFF34F8FBFF36F8FA9
:1056800000F0F6FA18B104494FF08050086000208D
:1056900080F3118810BD000004ED00E0F8B5174656
:1056A0000E46050013D005FB06F05030FFF7F2FC64
:1056B00004000AD0002084F8460004F150023B4662
:1056C000314628460094FFF797FA2046F8BD50204F
:1056D00080F31188BFF34F8FBFF36F8FFEE738B5AC
:1056E000049D18B153B1CAB181B120E0502080F3BC
:1056F0001188BFF34F8FBFF36F8FFEE7502080F309
:105700001188BFF34F8FBFF36F8FFEE7502080F3F8
:105710001188BFF34F8FBFF36F8FFEE739B1502071
:1057200080F31188BFF34F8FBFF36F8FFEE75024D4
:105730001C46012384F846302B460094FFF75CFAA0
:10574000204638BD70B50D46040025D0FFF77EFD1C
:10575000D4E90F20216802FB0011A1600021A163A0
:10576000216861600A46D4E90F01401E00FB012157
:10577000E16021464FF0FF3001F8440F487004F11A
:1057800010008DB1FFF730FD04F12400FFF72CFD70
:10579000FFF77CFD012070BD502080F31188BFF31E
:1057A0004F8FBFF36F8FFEE721690029F0D000F023
:1057B00003FB0028ECD004494FF080500860BFF391
:1057C0004F8FBFF36F8FE3E704ED00E02DE9FF4754
:1057D00082B01D468A464FF00008040003D0BAF19B
:1057E000000F08D011E0502080F31188BFF34F8FD5
:1057F000BFF36F8FFEE7206C38B1502080F3118823
:10580000BFF34F8FBFF36F8FFEE7022D0AD1E06B1E
:10581000012807D0502080F31188BFF34F8FBFF3CA
:105820006F8FFEE700F010FA3F4F4FF000094FF086
:10583000805648B9049838B1502080F31188BFF3DE
:105840004F8FBFF36F8FFEE7FFF700FDA06BE16B9B
:10585000884207D3022D05D00498D0B1B8F1000FCB
:105860001AD01EE02A4651462046FFF71EF9616A0B
:1058700019B104F1240000F09FFA20B13E60BFF39B
:105880004F8FBFF36F8FFFF701FD012006B0BDE81A
:10589000F087FFF7FBFC22E06846FFF7D5FD4FF0ED
:1058A0000108FFF7F3FCFFF755FEFFF7CFFC94F973
:1058B0004400401C01D184F8449094F94500401CF8
:1058C00001D184F84590FFF7E1FC04A9684600F097
:1058D00029F930B12046FFF7A7FB00F0A5FA002018
:1058E000D4E7FFF7B3FCA06BE16B884213D1FFF75D
:1058F000CDFC04F110000499FFF7B4FD2046FFF73A
:1059000093FB00F091FA00289ED13E60BFF34F8FC9
:10591000BFF36F8F98E7FFF7B9FC2046FFF784FBD2
:1059200000F082FA90E7000004ED00E02DE9F04776
:105930001F4690468946040003D0B9F1000F08D0F5
:1059400011E0502080F31188BFF34F8FBFF36F8FAA
:10595000FEE7206C38B1502080F31188BFF34F8FE1
:10596000BFF36F8FFEE7022F0AD1E06B012807D04B
:10597000502080F31188BFF34F8FBFF36F8FFEE786
:10598000FFF7DCFC5020EFF3118680F31188BFF3A2
:105990004F8FBFF36F8FA06BE16B884206D3022F4E
:1059A00004D0002086F31188BDE8F08794F94550B3
:1059B000A06B3A4649462046FFF777F8681C04D0AA
:1059C0006D1C84F845500120ECE7606A0028FAD08D
:1059D00004F1240000F0F0F90028F4D0B8F1000F31
:1059E000F1D00121C8F80010EDE700002DE9F747DC
:1059F000002683B08A46040003D0BAF1000F08D015
:105A000011E0502080F31188BFF34F8FBFF36F8FE9
:105A1000FEE7206C38B1502080F31188BFF34F8F20
:105A2000BFF36F8FFEE700F00FF9DFF8F4804FF05F
:105A300000094FF0805748B9059838B1502080F3DD
:105A40001188BFF34F8FBFF36F8FFEE7FFF7FEFBA9
:105A5000A56BC5B151462046FFF714F86D1EA5632E
:105A6000206950B104F1100000F0A6F928B1C8F87F
:105A70000070BFF34F8FBFF36F8FFFF707FC01205C
:105A800006B0BDE8F087059808B11EB106E0FFF743
:105A9000FDFB27E06846FFF7D7FC0126FFF7F6FB82
:105AA000FFF758FDFFF7D2FB94F94400401C01D1E9
:105AB00084F8449094F94500401C01D184F8459045
:105AC000FFF7E4FB05A9684600F02CF80028204603
:105AD0000AD0FFF7A9FA00F0A7F92046FFF738F936
