:0300000002001EDD
:0C001E00787FE4F6D8FD75810B020065C8
:0600030001090001080ED6
:0400AA008E0A8F0B20
:1000AE00E4FFFEC3EF950BEE950A50327D017C0006
:1000BE007B327A00900002E582158270021583E58C
:1000CE0082458370F2EB1B70011AEB4A70E6ED1D50
:0E00DE0070011CED4C70D90FBF00010E80C5E3
:0100EC0022F1
:03001B0002011CC3
:10011C00C0E0C0D0758DFF758B9C0509E509D395A2
:10012C00085004D2A08002C2A0E509C39464400325
:08013C00750900D0D0D0E032BB
:1000ED00758910758DFF758B9CD28ED2ABD2AF7585
:1000FD00080D7FE87E031200AA7508047FF47E01C7
:0F010D001200AA7508167FF47E011200AA80EA7C
:10002A000200EDE493A3F8E493A34003F68001F2FF
:10003A0008DFF48029E493A3F85407240CC8C333D7
:10004A00C4540F4420C8834004F456800146F6DFA6
:10005A00E4800B0102040810204080900003E47E33
:10006A00019360BCA3FF543F30E509541FFEE4939B
:10007A00A360010ECF54C025E060A840B8E493A362
:10008A00FAE493A3F8E493A3C8C582C8CAC583CA8D
:10009A00F0A3C8C582C8CAC583CADFE9DEE780BE45
:0100090000F6
:00000001FF
